{
  "address": "0xe7f1725E7734CE288F8367e1Bb143E90bb3F0512",
  "abi": [
    {
      "inputs": [
        {
          "internalType": "address",
          "name": "_poeAddress",
          "type": "address"
        }
      ],
      "stateMutability": "nonpayable",
      "type": "constructor"
    },
    {
      "anonymous": false,
      "inputs": [
        {
          "indexed": true,
          "internalType": "bytes32",
          "name": "hash",
          "type": "bytes32"
        },
        {
          "indexed": true,
          "internalType": "address",
          "name": "owner",
          "type": "address"
        },
        {
          "indexed": false,
          "internalType": "string",
          "name": "country",
          "type": "string"
        },
        {
          "indexed": false,
          "internalType": "string",
          "name": "city",
          "type": "string"
        }
      ],
      "name": "MicrogridRegistered",
      "type": "event"
    },
    {
      "anonymous": false,
      "inputs": [
        {
          "indexed": true,
          "internalType": "address",
          "name": "operator",
          "type": "address"
        }
      ],
      "name": "NodeDeactivated",
      "type": "event"
    },
    {
      "anonymous": false,
      "inputs": [
        {
          "indexed": true,
          "internalType": "address",
          "name": "operator",
          "type": "address"
        },
        {
          "indexed": true,
          "internalType": "bytes32",
          "name": "microgridHash",
          "type": "bytes32"
        }
      ],
      "name": "NodeRegistered",
      "type": "event"
    },
    {
      "anonymous": false,
      "inputs": [
        {
          "indexed": true,
          "internalType": "address",
          "name": "operator",
          "type": "address"
        },
        {
          "indexed": false,
          "internalType": "bytes32",
          "name": "oldHash",
          "type": "bytes32"
        },
        {
          "indexed": false,
          "internalType": "bytes32",
          "name": "newHash",
          "type": "bytes32"
        }
      ],
      "name": "NodeSwitched",
      "type": "event"
    },
    {
      "anonymous": false,
      "inputs": [
        {
          "indexed": true,
          "internalType": "bytes32",
          "name": "hash",
          "type": "bytes32"
        },
        {
          "indexed": false,
          "internalType": "uint256",
          "name": "kWh",
          "type": "uint256"
        },
        {
          "indexed": false,
          "internalType": "uint256",
          "name": "timestamp",
          "type": "uint256"
        }
      ],
      "name": "SensorDataSubmitted",
      "type": "event"
    },
    {
      "inputs": [
        {
          "internalType": "uint256",
          "name": "",
          "type": "uint256"
        }
      ],
      "name": "allMicrogridHashes",
      "outputs": [
        {
          "internalType": "bytes32",
          "name": "",
          "type": "bytes32"
        }
      ],
      "stateMutability": "view",
      "type": "function"
    },
    {
      "inputs": [
        {
          "internalType": "uint256",
          "name": "",
          "type": "uint256"
        }
      ],
      "name": "allNodeOperators",
      "outputs": [
        {
          "internalType": "address",
          "name": "",
          "type": "address"
        }
      ],
      "stateMutability": "view",
      "type": "function"
    },
    {
      "inputs": [
        {
          "internalType": "bytes32",
          "name": "hash",
          "type": "bytes32"
        }
      ],
      "name": "getMicrogridInfo",
      "outputs": [
        {
          "internalType": "address",
          "name": "walletMetamask",
          "type": "address"
        },
        {
          "internalType": "uint256",
          "name": "pricePerOp",
          "type": "uint256"
        },
        {
          "internalType": "string",
          "name": "country",
          "type": "string"
        },
        {
          "internalType": "string",
          "name": "city",
          "type": "string"
        },
        {
          "internalType": "bool",
          "name": "active",
          "type": "bool"
        },
        {
          "internalType": "uint256",
          "name": "latestKWh",
          "type": "uint256"
        },
        {
          "internalType": "uint256",
          "name": "capacityGB",
          "type": "uint256"
        }
      ],
      "stateMutability": "view",
      "type": "function"
    },
    {
      "inputs": [
        {
          "internalType": "bytes32",
          "name": "hash",
          "type": "bytes32"
        }
      ],
      "name": "latestSensor",
      "outputs": [
        {
          "components": [
            {
              "internalType": "uint256",
              "name": "kWh",
              "type": "uint256"
            },
            {
              "internalType": "uint256",
              "name": "timestamp",
              "type": "uint256"
            }
          ],
          "internalType": "struct Sunest.SensorRecord",
          "name": "",
          "type": "tuple"
        }
      ],
      "stateMutability": "view",
      "type": "function"
    },
    {
      "inputs": [],
      "name": "listMicrogrids",
      "outputs": [
        {
          "internalType": "bytes32[]",
          "name": "",
          "type": "bytes32[]"
        }
      ],
      "stateMutability": "view",
      "type": "function"
    },
    {
      "inputs": [
        {
          "internalType": "bytes32",
          "name": "",
          "type": "bytes32"
        }
      ],
      "name": "microgridByHash",
      "outputs": [
        {
          "internalType": "address",
          "name": "walletMetamask",
          "type": "address"
        },
        {
          "internalType": "uint256",
          "name": "energyPricePerOp",
          "type": "uint256"
        },
        {
          "internalType": "string",
          "name": "country",
          "type": "string"
        },
        {
          "internalType": "string",
          "name": "city",
          "type": "string"
        },
        {
          "internalType": "bool",
          "name": "isActive",
          "type": "bool"
        },
        {
          "internalType": "address",
          "name": "owner",
          "type": "address"
        }
      ],
      "stateMutability": "view",
      "type": "function"
    },
    {
      "inputs": [
        {
          "internalType": "string",
          "name": "country",
          "type": "string"
        },
        {
          "internalType": "string",
          "name": "city",
          "type": "string"
        }
      ],
      "name": "microgridsByLocation",
      "outputs": [
        {
          "internalType": "bytes32[]",
          "name": "hashes",
          "type": "bytes32[]"
        },
        {
          "internalType": "address[]",
          "name": "wallets",
          "type": "address[]"
        },
        {
          "internalType": "uint256[]",
          "name": "prices",
          "type": "uint256[]"
        },
        {
          "internalType": "uint256[]",
          "name": "latestKWh",
          "type": "uint256[]"
        }
      ],
      "stateMutability": "view",
      "type": "function"
    },
    {
      "inputs": [
        {
          "internalType": "bytes32",
          "name": "",
          "type": "bytes32"
        },
        {
          "internalType": "uint256",
          "name": "",
          "type": "uint256"
        }
      ],
      "name": "microgridsByLocationHash",
      "outputs": [
        {
          "internalType": "bytes32",
          "name": "",
          "type": "bytes32"
        }
      ],
      "stateMutability": "view",
      "type": "function"
    },
    {
      "inputs": [
        {
          "internalType": "address",
          "name": "",
          "type": "address"
        }
      ],
      "name": "nodeByOperator",
      "outputs": [
        {
          "internalType": "address",
          "name": "operator",
          "type": "address"
        },
        {
          "internalType": "bytes32",
          "name": "currentMicrogridHash",
          "type": "bytes32"
        },
        {
          "internalType": "bool",
          "name": "isActive",
          "type": "bool"
        },
        {
          "internalType": "string",
          "name": "country",
          "type": "string"
        },
        {
          "internalType": "string",
          "name": "city",
          "type": "string"
        },
        {
          "internalType": "uint256",
          "name": "storedGB",
          "type": "uint256"
        }
      ],
      "stateMutability": "view",
      "type": "function"
    },
    {
      "inputs": [],
      "name": "poe",
      "outputs": [
        {
          "internalType": "contract ProofOfExistence",
          "name": "",
          "type": "address"
        }
      ],
      "stateMutability": "view",
      "type": "function"
    },
    {
      "inputs": [
        {
          "internalType": "address",
          "name": "_walletMetamask",
          "type": "address"
        },
        {
          "internalType": "uint256",
          "name": "_energyPricePerOp",
          "type": "uint256"
        },
        {
          "internalType": "string",
          "name": "_country",
          "type": "string"
        },
        {
          "internalType": "string",
          "name": "_city",
          "type": "string"
        }
      ],
      "name": "registerMicrogrid",
      "outputs": [],
      "stateMutability": "nonpayable",
      "type": "function"
    },
    {
      "inputs": [
        {
          "internalType": "bytes32",
          "name": "microgridHash",
          "type": "bytes32"
        },
        {
          "internalType": "string",
          "name": "country",
          "type": "string"
        },
        {
          "internalType": "string",
          "name": "city",
          "type": "string"
        },
        {
          "internalType": "uint256",
          "name": "initialGB",
          "type": "uint256"
        }
      ],
      "name": "registerNode",
      "outputs": [],
      "stateMutability": "nonpayable",
      "type": "function"
    },
    {
      "inputs": [
        {
          "internalType": "bytes32",
          "name": "",
          "type": "bytes32"
        },
        {
          "internalType": "uint256",
          "name": "",
          "type": "uint256"
        }
      ],
      "name": "sensorHistory",
      "outputs": [
        {
          "internalType": "uint256",
          "name": "kWh",
          "type": "uint256"
        },
        {
          "internalType": "uint256",
          "name": "timestamp",
          "type": "uint256"
        }
      ],
      "stateMutability": "view",
      "type": "function"
    },
    {
      "inputs": [
        {
          "internalType": "bytes32",
          "name": "hash",
          "type": "bytes32"
        },
        {
          "internalType": "uint256",
          "name": "kWh",
          "type": "uint256"
        }
      ],
      "name": "submitSensorData",
      "outputs": [],
      "stateMutability": "nonpayable",
      "type": "function"
    },
    {
      "inputs": [],
      "name": "switchIfNeeded",
      "outputs": [],
      "stateMutability": "nonpayable",
      "type": "function"
    }
  ],
  "transactionHash": "0xcf058f29ccc5303519f39d13780a825b06ffb7b47df2ff8a737c95f953534322",
  "args": [
    "0x5FbDB2315678afecb367f032d93F642f64180aa3"
  ],
  "numDeployments": 1,
  "solcInputHash": "6c3ed4cdbb722ba9d23d13f2e9bf33c3",
  "bytecode": "0x60806040523480156200001157600080fd5b5060405162002f0238038062002f028339818101604052810190620000379190620000e8565b806000806101000a81548173ffffffffffffffffffffffffffffffffffffffff021916908373ffffffffffffffffffffffffffffffffffffffff160217905550506200011a565b600080fd5b600073ffffffffffffffffffffffffffffffffffffffff82169050919050565b6000620000b08262000083565b9050919050565b620000c281620000a3565b8114620000ce57600080fd5b50565b600081519050620000e281620000b7565b92915050565b6000602082840312156200010157620001006200007e565b5b60006200011184828501620000d1565b91505092915050565b612dd8806200012a6000396000f3fe608060405234801561001057600080fd5b50600436106100f55760003560e01c8063ba59286a11610097578063de8c044811610066578063de8c0448146102aa578063ed23e348146102da578063f9797a911461030a578063fd8195c214610328576100f5565b8063ba59286a1461020f578063bef9f8d11461022b578063caa83a9c1461025b578063d3c4108514610279576100f5565b806338b031d8116100d357806338b031d81461017f5780639654ef6e14610189578063b4771d90146101a5578063b6516f61146101da576100f5565b80630a36107c146100fa57806316bc93c81461012d5780632e12661f14610163575b600080fd5b610114600480360381019061010f919061192e565b610358565b6040516101249493929190611c2f565b60405180910390f35b61014760048036038101906101429190611cbc565b610625565b60405161015a9796959493929190611db2565b60405180910390f35b61017d60048036038101906101789190611e5b565b61086f565b005b610187610aac565b005b6101a3600480360381019061019e9190611ff7565b610d64565b005b6101bf60048036038101906101ba9190612096565b611077565b6040516101d1969594939291906120d2565b60405180910390f35b6101f460048036038101906101ef9190611cbc565b6111f0565b60405161020696959493929190612141565b60405180910390f35b610229600480360381019061022491906121b0565b611389565b005b61024560048036038101906102409190611cbc565b611699565b604051610252919061227e565b60405180910390f35b61026361174a565b60405161027091906122f8565b60405180910390f35b610293600480360381019061028e9190611e5b565b61176e565b6040516102a1929190612313565b60405180910390f35b6102c460048036038101906102bf919061233c565b6117af565b6040516102d19190612369565b60405180910390f35b6102f460048036038101906102ef9190611e5b565b6117d3565b6040516103019190612369565b60405180910390f35b610312611804565b60405161031f9190612384565b60405180910390f35b610342600480360381019061033d919061233c565b61185c565b60405161034f91906123a6565b60405180910390f35b60608060608060008888888860405160200161037794939291906123f1565b60405160208183030381529060405280519060200120905060006006600083815260200190815260200160002090506000818054905090508067ffffffffffffffff8111156103c9576103c8611ecc565b5b6040519080825280602002602001820160405280156103f75781602001602082028036833780820191505090505b5096508067ffffffffffffffff81111561041457610413611ecc565b5b6040519080825280602002602001820160405280156104425781602001602082028036833780820191505090505b5095508067ffffffffffffffff81111561045f5761045e611ecc565b5b60405190808252806020026020018201604052801561048d5781602001602082028036833780820191505090505b5094508067ffffffffffffffff8111156104aa576104a9611ecc565b5b6040519080825280602002602001820160405280156104d85781602001602082028036833780820191505090505b50935060005b818110156106165760008382815481106104fb576104fa612419565b5b906000526020600020015490506000600160008381526020019081526020016000209050818a848151811061053357610532612419565b5b6020026020010181815250508060000160009054906101000a900473ffffffffffffffffffffffffffffffffffffffff1689848151811061057757610576612419565b5b602002602001019073ffffffffffffffffffffffffffffffffffffffff16908173ffffffffffffffffffffffffffffffffffffffff168152505080600101548884815181106105c9576105c8612419565b5b6020026020010181815250506105de82611699565b600001518784815181106105f5576105f4612419565b5b6020026020010181815250505050808061060e90612477565b9150506104de565b50505050945094509450949050565b600080606080600080600080600160008a81526020019081526020016000209050600073ffffffffffffffffffffffffffffffffffffffff168160040160019054906101000a900473ffffffffffffffffffffffffffffffffffffffff1673ffffffffffffffffffffffffffffffffffffffff16036106d9576040517f08c379a00000000000000000000000000000000000000000000000000000000081526004016106d09061250b565b60405180910390fd5b60006106e48a611699565b6000015190508160000160009054906101000a900473ffffffffffffffffffffffffffffffffffffffff16826001015483600201846003018560040160009054906101000a900460ff168560058761073c919061255a565b848054610748906125ba565b80601f0160208091040260200160405190810160405280929190818152602001828054610774906125ba565b80156107c15780601f10610796576101008083540402835291602001916107c1565b820191906000526020600020905b8154815290600101906020018083116107a457829003601f168201915b505050505094508380546107d4906125ba565b80601f0160208091040260200160405190810160405280929190818152602001828054610800906125ba565b801561084d5780601f106108225761010080835404028352916020019161084d565b820191906000526020600020905b81548152906001019060200180831161083057829003601f168201915b5050505050935098509850985098509850985098505050919395979092949650565b60006001600084815260200190815260200160002090508060040160009054906101000a900460ff166108d7576040517f08c379a00000000000000000000000000000000000000000000000000000000081526004016108ce90612637565b60405180910390fd5b8060040160019054906101000a900473ffffffffffffffffffffffffffffffffffffffff1673ffffffffffffffffffffffffffffffffffffffff163373ffffffffffffffffffffffffffffffffffffffff16148061098457508060000160009054906101000a900473ffffffffffffffffffffffffffffffffffffffff1673ffffffffffffffffffffffffffffffffffffffff163373ffffffffffffffffffffffffffffffffffffffff16145b6109c3576040517f08c379a00000000000000000000000000000000000000000000000000000000081526004016109ba906126a3565b60405180910390fd5b60008211610a06576040517f08c379a00000000000000000000000000000000000000000000000000000000081526004016109fd9061270f565b60405180910390fd5b60026000848152602001908152602001600020604051806040016040528084815260200142815250908060018154018082558091505060019003906000526020600020906002020160009091909190915060008201518160000155602082015181600101555050827fd04ae7f5c365f5af29e2c51608606750fa1c539688801e8fab7195ee17d4fa338342604051610a9f929190612313565b60405180910390a2505050565b6000600360003373ffffffffffffffffffffffffffffffffffffffff1673ffffffffffffffffffffffffffffffffffffffff16815260200190815260200160002090508060020160009054906101000a900460ff16610b40576040517f08c379a0000000000000000000000000000000000000000000000000000000008152600401610b379061277b565b60405180910390fd5b600060058260050154610b53919061279b565b90506000610b648360010154611699565b600001519050601e82610b77919061279b565b606482610b84919061279b565b1015610d5f5760008360030184600401604051602001610ba5929190612875565b60405160208183030381529060405280519060200120905060006006600083815260200190815260200160002090506000806000905060005b8380549050811015610c8c576000848281548110610bff57610bfe612419565b5b906000526020600020015490508860010154811480610c3f57506001600082815260200190815260200160002060040160009054906101000a900460ff16155b15610c4a5750610c79565b6000610c5582611699565b600001519050888110158015610c6a57508381115b15610c76578194508093505b50505b8080610c8490612477565b915050610bde565b506000801b8214610cf9573373ffffffffffffffffffffffffffffffffffffffff167fa536bd2faeed580ba08e0d9181ca6680469923f19f421c296c67b430117cb7ce886001015484604051610ce3929190612899565b60405180910390a2818760010181905550610d5a565b60008760020160006101000a81548160ff0219169083151502179055503373ffffffffffffffffffffffffffffffffffffffff167fd9957750e6343405c319eb99a4ec67fa11cfd66969318cbc71aa2d45fa53a34960405160405180910390a25b505050505b505050565b6000848383604051602001610d7b9392919061293b565b604051602081830303815290604052805190602001209050600073ffffffffffffffffffffffffffffffffffffffff166001600083815260200190815260200160002060040160019054906101000a900473ffffffffffffffffffffffffffffffffffffffff1673ffffffffffffffffffffffffffffffffffffffff1614610e38576040517f08c379a0000000000000000000000000000000000000000000000000000000008152600401610e2f906129bc565b60405180910390fd5b6040518060c001604052808673ffffffffffffffffffffffffffffffffffffffff1681526020018581526020018481526020018381526020016001151581526020013373ffffffffffffffffffffffffffffffffffffffff168152506001600083815260200190815260200160002060008201518160000160006101000a81548173ffffffffffffffffffffffffffffffffffffffff021916908373ffffffffffffffffffffffffffffffffffffffff160217905550602082015181600101556040820151816002019081610f0d9190612b69565b506060820151816003019081610f239190612b69565b5060808201518160040160006101000a81548160ff02191690831515021790555060a08201518160040160016101000a81548173ffffffffffffffffffffffffffffffffffffffff021916908373ffffffffffffffffffffffffffffffffffffffff160217905550905050600481908060018154018082558091505060019003906000526020600020016000909190919091505560008383604051602001610fcc929190612c3b565b604051602081830303815290604052805190602001209050600660008281526020019081526020016000208290806001815401808255809150506001900390600052602060002001600090919091909150553373ffffffffffffffffffffffffffffffffffffffff16827feb9ae7f4f294a758100f08a8097ce48756513cea01d7f314163f5f3064adfb158686604051611067929190612c5f565b60405180910390a3505050505050565b60036020528060005260406000206000915090508060000160009054906101000a900473ffffffffffffffffffffffffffffffffffffffff16908060010154908060020160009054906101000a900460ff16908060030180546110d9906125ba565b80601f0160208091040260200160405190810160405280929190818152602001828054611105906125ba565b80156111525780601f1061112757610100808354040283529160200191611152565b820191906000526020600020905b81548152906001019060200180831161113557829003601f168201915b505050505090806004018054611167906125ba565b80601f0160208091040260200160405190810160405280929190818152602001828054611193906125ba565b80156111e05780601f106111b5576101008083540402835291602001916111e0565b820191906000526020600020905b8154815290600101906020018083116111c357829003601f168201915b5050505050908060050154905086565b60016020528060005260406000206000915090508060000160009054906101000a900473ffffffffffffffffffffffffffffffffffffffff169080600101549080600201805461123f906125ba565b80601f016020809104026020016040519081016040528092919081815260200182805461126b906125ba565b80156112b85780601f1061128d576101008083540402835291602001916112b8565b820191906000526020600020905b81548152906001019060200180831161129b57829003601f168201915b5050505050908060030180546112cd906125ba565b80601f01602080910402602001604051908101604052809291908181526020018280546112f9906125ba565b80156113465780601f1061131b57610100808354040283529160200191611346565b820191906000526020600020905b81548152906001019060200180831161132957829003601f168201915b5050505050908060040160009054906101000a900460ff16908060040160019054906101000a900473ffffffffffffffffffffffffffffffffffffffff16905086565b600073ffffffffffffffffffffffffffffffffffffffff16600360003373ffffffffffffffffffffffffffffffffffffffff1673ffffffffffffffffffffffffffffffffffffffff16815260200190815260200160002060000160009054906101000a900473ffffffffffffffffffffffffffffffffffffffff1673ffffffffffffffffffffffffffffffffffffffff161461145a576040517f08c379a000000000000000000000000000000000000000000000000000000000815260040161145190612ce2565b60405180910390fd5b6001600085815260200190815260200160002060040160009054906101000a900460ff166114bd576040517f08c379a00000000000000000000000000000000000000000000000000000000081526004016114b490612d4e565b60405180910390fd5b6040518060c001604052803373ffffffffffffffffffffffffffffffffffffffff16815260200185815260200160011515815260200184815260200183815260200182815250600360003373ffffffffffffffffffffffffffffffffffffffff1673ffffffffffffffffffffffffffffffffffffffff16815260200190815260200160002060008201518160000160006101000a81548173ffffffffffffffffffffffffffffffffffffffff021916908373ffffffffffffffffffffffffffffffffffffffff1602179055506020820151816001015560408201518160020160006101000a81548160ff02191690831515021790555060608201518160030190816115c89190612b69565b5060808201518160040190816115de9190612b69565b5060a082015181600501559050506005339080600181540180825580915050600190039060005260206000200160009091909190916101000a81548173ffffffffffffffffffffffffffffffffffffffff021916908373ffffffffffffffffffffffffffffffffffffffff160217905550833373ffffffffffffffffffffffffffffffffffffffff167fb098a592c213bb65419fbec76799a12091bcb1ab0dfc0890bbc386f7980378e360405160405180910390a350505050565b6116a161189b565b600060026000848152602001908152602001600020805490509050600081036116e3576040518060400160405280600081526020016000815250915050611745565b600260008481526020019081526020016000206001826117039190612d6e565b8154811061171457611713612419565b5b9060005260206000209060020201604051806040016040529081600082015481526020016001820154815250509150505b919050565b60008054906101000a900473ffffffffffffffffffffffffffffffffffffffff1681565b6002602052816000526040600020818154811061178a57600080fd5b9060005260206000209060020201600091509150508060000154908060010154905082565b600481815481106117bf57600080fd5b906000526020600020016000915090505481565b600660205281600052604060002081815481106117ef57600080fd5b90600052602060002001600091509150505481565b6060600480548060200260200160405190810160405280929190818152602001828054801561185257602002820191906000526020600020905b81548152602001906001019080831161183e575b5050505050905090565b6005818154811061186c57600080fd5b906000526020600020016000915054906101000a900473ffffffffffffffffffffffffffffffffffffffff1681565b604051806040016040528060008152602001600081525090565b6000604051905090565b600080fd5b600080fd5b600080fd5b600080fd5b600080fd5b60008083601f8401126118ee576118ed6118c9565b5b8235905067ffffffffffffffff81111561190b5761190a6118ce565b5b602083019150836001820283011115611927576119266118d3565b5b9250929050565b60008060008060408587031215611948576119476118bf565b5b600085013567ffffffffffffffff811115611966576119656118c4565b5b611972878288016118d8565b9450945050602085013567ffffffffffffffff811115611995576119946118c4565b5b6119a1878288016118d8565b925092505092959194509250565b600081519050919050565b600082825260208201905092915050565b6000819050602082019050919050565b6000819050919050565b6119ee816119db565b82525050565b6000611a0083836119e5565b60208301905092915050565b6000602082019050919050565b6000611a24826119af565b611a2e81856119ba565b9350611a39836119cb565b8060005b83811015611a6a578151611a5188826119f4565b9750611a5c83611a0c565b925050600181019050611a3d565b5085935050505092915050565b600081519050919050565b600082825260208201905092915050565b6000819050602082019050919050565b600073ffffffffffffffffffffffffffffffffffffffff82169050919050565b6000611ace82611aa3565b9050919050565b611ade81611ac3565b82525050565b6000611af08383611ad5565b60208301905092915050565b6000602082019050919050565b6000611b1482611a77565b611b1e8185611a82565b9350611b2983611a93565b8060005b83811015611b5a578151611b418882611ae4565b9750611b4c83611afc565b925050600181019050611b2d565b5085935050505092915050565b600081519050919050565b600082825260208201905092915050565b6000819050602082019050919050565b6000819050919050565b611ba681611b93565b82525050565b6000611bb88383611b9d565b60208301905092915050565b6000602082019050919050565b6000611bdc82611b67565b611be68185611b72565b9350611bf183611b83565b8060005b83811015611c22578151611c098882611bac565b9750611c1483611bc4565b925050600181019050611bf5565b5085935050505092915050565b60006080820190508181036000830152611c498187611a19565b90508181036020830152611c5d8186611b09565b90508181036040830152611c718185611bd1565b90508181036060830152611c858184611bd1565b905095945050505050565b611c99816119db565b8114611ca457600080fd5b50565b600081359050611cb681611c90565b92915050565b600060208284031215611cd257611cd16118bf565b5b6000611ce084828501611ca7565b91505092915050565b611cf281611ac3565b82525050565b611d0181611b93565b82525050565b600081519050919050565b600082825260208201905092915050565b60005b83811015611d41578082015181840152602081019050611d26565b60008484015250505050565b6000601f19601f8301169050919050565b6000611d6982611d07565b611d738185611d12565b9350611d83818560208601611d23565b611d8c81611d4d565b840191505092915050565b60008115159050919050565b611dac81611d97565b82525050565b600060e082019050611dc7600083018a611ce9565b611dd46020830189611cf8565b8181036040830152611de68188611d5e565b90508181036060830152611dfa8187611d5e565b9050611e096080830186611da3565b611e1660a0830185611cf8565b611e2360c0830184611cf8565b98975050505050505050565b611e3881611b93565b8114611e4357600080fd5b50565b600081359050611e5581611e2f565b92915050565b60008060408385031215611e7257611e716118bf565b5b6000611e8085828601611ca7565b9250506020611e9185828601611e46565b9150509250929050565b611ea481611ac3565b8114611eaf57600080fd5b50565b600081359050611ec181611e9b565b92915050565b600080fd5b7f4e487b7100000000000000000000000000000000000000000000000000000000600052604160045260246000fd5b611f0482611d4d565b810181811067ffffffffffffffff82111715611f2357611f22611ecc565b5b80604052505050565b6000611f366118b5565b9050611f428282611efb565b919050565b600067ffffffffffffffff821115611f6257611f61611ecc565b5b611f6b82611d4d565b9050602081019050919050565b82818337600083830152505050565b6000611f9a611f9584611f47565b611f2c565b905082815260208101848484011115611fb657611fb5611ec7565b5b611fc1848285611f78565b509392505050565b600082601f830112611fde57611fdd6118c9565b5b8135611fee848260208601611f87565b91505092915050565b60008060008060808587031215612011576120106118bf565b5b600061201f87828801611eb2565b945050602061203087828801611e46565b935050604085013567ffffffffffffffff811115612051576120506118c4565b5b61205d87828801611fc9565b925050606085013567ffffffffffffffff81111561207e5761207d6118c4565b5b61208a87828801611fc9565b91505092959194509250565b6000602082840312156120ac576120ab6118bf565b5b60006120ba84828501611eb2565b91505092915050565b6120cc816119db565b82525050565b600060c0820190506120e76000830189611ce9565b6120f460208301886120c3565b6121016040830187611da3565b81810360608301526121138186611d5e565b905081810360808301526121278185611d5e565b905061213660a0830184611cf8565b979650505050505050565b600060c0820190506121566000830189611ce9565b6121636020830188611cf8565b81810360408301526121758187611d5e565b905081810360608301526121898186611d5e565b90506121986080830185611da3565b6121a560a0830184611ce9565b979650505050505050565b600080600080608085870312156121ca576121c96118bf565b5b60006121d887828801611ca7565b945050602085013567ffffffffffffffff8111156121f9576121f86118c4565b5b61220587828801611fc9565b935050604085013567ffffffffffffffff811115612226576122256118c4565b5b61223287828801611fc9565b925050606061224387828801611e46565b91505092959194509250565b6040820160008201516122656000850182611b9d565b5060208201516122786020850182611b9d565b50505050565b6000604082019050612293600083018461224f565b92915050565b6000819050919050565b60006122be6122b96122b484611aa3565b612299565b611aa3565b9050919050565b60006122d0826122a3565b9050919050565b60006122e2826122c5565b9050919050565b6122f2816122d7565b82525050565b600060208201905061230d60008301846122e9565b92915050565b60006040820190506123286000830185611cf8565b6123356020830184611cf8565b9392505050565b600060208284031215612352576123516118bf565b5b600061236084828501611e46565b91505092915050565b600060208201905061237e60008301846120c3565b92915050565b6000602082019050818103600083015261239e8184611a19565b905092915050565b60006020820190506123bb6000830184611ce9565b92915050565b600081905092915050565b60006123d883856123c1565b93506123e5838584611f78565b82840190509392505050565b60006123fe8286886123cc565b915061240b8284866123cc565b915081905095945050505050565b7f4e487b7100000000000000000000000000000000000000000000000000000000600052603260045260246000fd5b7f4e487b7100000000000000000000000000000000000000000000000000000000600052601160045260246000fd5b600061248282611b93565b91507fffffffffffffffffffffffffffffffffffffffffffffffffffffffffffffffff82036124b4576124b3612448565b5b600182019050919050565b7f4d6963726f677269643a20446573636f6e686563696461000000000000000000600082015250565b60006124f5601783611d12565b9150612500826124bf565b602082019050919050565b60006020820190508181036000830152612524816124e8565b9050919050565b7f4e487b7100000000000000000000000000000000000000000000000000000000600052601260045260246000fd5b600061256582611b93565b915061257083611b93565b9250826125805761257f61252b565b5b828204905092915050565b7f4e487b7100000000000000000000000000000000000000000000000000000000600052602260045260246000fd5b600060028204905060018216806125d257607f821691505b6020821081036125e5576125e461258b565b5b50919050565b7f4d6963726f677269643a20496e61746976610000000000000000000000000000600082015250565b6000612621601283611d12565b915061262c826125eb565b602082019050919050565b6000602082019050818103600083015261265081612614565b9050919050565b7f4d6963726f677269643a204e616f206175746f72697a61646f00000000000000600082015250565b600061268d601983611d12565b915061269882612657565b602082019050919050565b600060208201905081810360008301526126bc81612680565b9050919050565b7f53656e736f723a206b5768206465766520736572206d61696f72207175652030600082015250565b60006126f9602083611d12565b9150612704826126c3565b602082019050919050565b60006020820190508181036000830152612728816126ec565b9050919050565b7f4e6f64653a20496e617469766f00000000000000000000000000000000000000600082015250565b6000612765600d83611d12565b91506127708261272f565b602082019050919050565b6000602082019050818103600083015261279481612758565b9050919050565b60006127a682611b93565b91506127b183611b93565b92508282026127bf81611b93565b915082820484148315176127d6576127d5612448565b5b5092915050565b60008190508160005260206000209050919050565b600081546127ff816125ba565b61280981866123c1565b9450600182166000811461282457600181146128395761286c565b60ff198316865281151582028601935061286c565b612842856127dd565b60005b8381101561286457815481890152600182019150602081019050612845565b838801955050505b50505092915050565b600061288182856127f2565b915061288d82846127f2565b91508190509392505050565b60006040820190506128ae60008301856120c3565b6128bb60208301846120c3565b9392505050565b60008160601b9050919050565b60006128da826128c2565b9050919050565b60006128ec826128cf565b9050919050565b6129046128ff82611ac3565b6128e1565b82525050565b600061291582611d07565b61291f81856123c1565b935061292f818560208601611d23565b80840191505092915050565b600061294782866128f3565b601482019150612957828561290a565b9150612963828461290a565b9150819050949350505050565b7f4d6963726f677269643a204a6120726567697374726164610000000000000000600082015250565b60006129a6601883611d12565b91506129b182612970565b602082019050919050565b600060208201905081810360008301526129d581612999565b9050919050565b60006020601f8301049050919050565b600082821b905092915050565b600060088302612a297fffffffffffffffffffffffffffffffffffffffffffffffffffffffffffffffff826129ec565b612a3386836129ec565b95508019841693508086168417925050509392505050565b6000612a66612a61612a5c84611b93565b612299565b611b93565b9050919050565b6000819050919050565b612a8083612a4b565b612a94612a8c82612a6d565b8484546129f9565b825550505050565b600090565b612aa9612a9c565b612ab4818484612a77565b505050565b5b81811015612ad857612acd600082612aa1565b600181019050612aba565b5050565b601f821115612b1d57612aee816127dd565b612af7846129dc565b81016020851015612b06578190505b612b1a612b12856129dc565b830182612ab9565b50505b505050565b600082821c905092915050565b6000612b4060001984600802612b22565b1980831691505092915050565b6000612b598383612b2f565b9150826002028217905092915050565b612b7282611d07565b67ffffffffffffffff811115612b8b57612b8a611ecc565b5b612b9582546125ba565b612ba0828285612adc565b600060209050601f831160018114612bd35760008415612bc1578287015190505b612bcb8582612b4d565b865550612c33565b601f198416612be1866127dd565b60005b82811015612c0957848901518255600182019150602085019450602081019050612be4565b86831015612c265784890151612c22601f891682612b2f565b8355505b6001600288020188555050505b505050505050565b6000612c47828561290a565b9150612c53828461290a565b91508190509392505050565b60006040820190508181036000830152612c798185611d5e565b90508181036020830152612c8d8184611d5e565b90509392505050565b7f4e6f64653a204a61206578697374650000000000000000000000000000000000600082015250565b6000612ccc600f83611d12565b9150612cd782612c96565b602082019050919050565b60006020820190508181036000830152612cfb81612cbf565b9050919050565b7f4e6f64653a204d6963726f6772696420696e696369616c20696e617469766100600082015250565b6000612d38601f83611d12565b9150612d4382612d02565b602082019050919050565b60006020820190508181036000830152612d6781612d2b565b9050919050565b6000612d7982611b93565b9150612d8483611b93565b9250828203905081811115612d9c57612d9b612448565b5b9291505056fea264697066735822122043d15d54eb7d1c017b56272940c13449223c01a43c8ff7f628583aaf4f8d5f6064736f6c63430008140033",
  "devdoc": {
    "kind": "dev",
    "methods": {
      "getMicrogridInfo(bytes32)": {
        "params": {
          "hash": "O hash da microgrid."
        },
        "returns": {
          "active": "Status da microgrid.",
          "capacityGB": "Capacidade de processamento equivalente em GB.",
          "city": "Cidade de localizao.",
          "country": "Pas de localizao.",
          "latestKWh": "ltima leitura de energia.",
          "pricePerOp": "Preo da energia.",
          "walletMetamask": "Endereo da carteira do operador."
        }
      },
      "latestSensor(bytes32)": {
        "params": {
          "hash": "O hash da microgrid."
        },
        "returns": {
          "_0": "SensorRecord O ltimo registro de energia."
        }
      },
      "listMicrogrids()": {
        "details": "til para aplicaes externas descobrirem todas as microgrids."
      },
      "microgridsByLocation(string,string)": {
        "details": "Funo otimizada que busca por um ndice de localizao, economizando gs.",
        "returns": {
          "hashes": "Array com os hashes das microgrids.",
          "latestKWh": "Array com a ltima leitura de kWh de cada microgrid.",
          "prices": "Array com os preos de energia.",
          "wallets": "Array com as carteiras das microgrids."
        }
      },
      "registerMicrogrid(address,uint256,string,string)": {
        "details": "Gera um hash nico para a microgrid e a indexa por localizao para buscas futuras.",
        "params": {
          "_city": "A cidade onde a microgrid est localizada.",
          "_country": "O pas onde a microgrid est localizada.",
          "_energyPricePerOp": "O preo da energia por operao.",
          "_walletMetamask": "O endereo da carteira do operador da microgrid."
        }
      },
      "registerNode(bytes32,string,string,uint256)": {
        "params": {
          "city": "A cidade onde o n est operando.",
          "country": "O pas onde o n est operando.",
          "initialGB": "A capacidade de armazenamento/processamento do n.",
          "microgridHash": "O hash da microgrid inicial  qual o n se conectar."
        }
      },
      "submitSensorData(bytes32,uint256)": {
        "details": "Apenas o dono do registro ou a carteira da microgrid podem enviar dados.",
        "params": {
          "hash": "O hash da microgrid.",
          "kWh": "A quantidade de energia gerada em kWh."
        }
      },
      "switchIfNeeded()": {
        "details": "Se nenhuma microgrid adequada for encontrada, o n  desativado."
      }
    },
    "version": 1
  },
  "userdoc": {
    "kind": "user",
    "methods": {
      "getMicrogridInfo(bytes32)": {
        "notice": "Retorna informaes detalhadas sobre uma microgrid especfica."
      },
      "latestSensor(bytes32)": {
        "notice": "Retorna o registro mais recente de um sensor de uma microgrid."
      },
      "listMicrogrids()": {
        "notice": "Retorna uma lista com os hashes de todas as microgrids registradas."
      },
      "microgridsByLocation(string,string)": {
        "notice": "Retorna uma lista de microgrids ativas em uma determinada localizao."
      },
      "registerMicrogrid(address,uint256,string,string)": {
        "notice": "Registra uma nova microgrid no sistema."
      },
      "registerNode(bytes32,string,string,uint256)": {
        "notice": "Registra um novo n consumidor de energia."
      },
      "submitSensorData(bytes32,uint256)": {
        "notice": "Envia dados de gerao de energia de um sensor."
      },
      "switchIfNeeded()": {
        "notice": "Verifica a energia da microgrid atual e, se abaixo de um limiar, troca para a melhor disponvel na mesma cidade."
      }
    },
    "version": 1
  },
  "storageLayout": {
    "storage": [
      {
        "astId": 254,
        "contract": "contracts/Sunest.sol:Sunest",
        "label": "poe",
        "offset": 0,
        "slot": "0",
        "type": "t_contract(ProofOfExistence)242"
      },
      {
        "astId": 290,
        "contract": "contracts/Sunest.sol:Sunest",
        "label": "microgridByHash",
        "offset": 0,
        "slot": "1",
        "type": "t_mapping(t_bytes32,t_struct(Microgrid)267_storage)"
      },
      {
        "astId": 296,
        "contract": "contracts/Sunest.sol:Sunest",
        "label": "sensorHistory",
        "offset": 0,
        "slot": "2",
        "type": "t_mapping(t_bytes32,t_array(t_struct(SensorRecord)272_storage)dyn_storage)"
      },
      {
        "astId": 301,
        "contract": "contracts/Sunest.sol:Sunest",
        "label": "nodeByOperator",
        "offset": 0,
        "slot": "3",
        "type": "t_mapping(t_address,t_struct(Node)285_storage)"
      },
      {
        "astId": 304,
        "contract": "contracts/Sunest.sol:Sunest",
        "label": "allMicrogridHashes",
        "offset": 0,
        "slot": "4",
        "type": "t_array(t_bytes32)dyn_storage"
      },
      {
        "astId": 307,
        "contract": "contracts/Sunest.sol:Sunest",
        "label": "allNodeOperators",
        "offset": 0,
        "slot": "5",
        "type": "t_array(t_address)dyn_storage"
      },
      {
        "astId": 312,
        "contract": "contracts/Sunest.sol:Sunest",
        "label": "microgridsByLocationHash",
        "offset": 0,
        "slot": "6",
        "type": "t_mapping(t_bytes32,t_array(t_bytes32)dyn_storage)"
      }
    ],
    "types": {
      "t_address": {
        "encoding": "inplace",
        "label": "address",
        "numberOfBytes": "20"
      },
      "t_array(t_address)dyn_storage": {
        "base": "t_address",
        "encoding": "dynamic_array",
        "label": "address[]",
        "numberOfBytes": "32"
      },
      "t_array(t_bytes32)dyn_storage": {
        "base": "t_bytes32",
        "encoding": "dynamic_array",
        "label": "bytes32[]",
        "numberOfBytes": "32"
      },
      "t_array(t_struct(SensorRecord)272_storage)dyn_storage": {
        "base": "t_struct(SensorRecord)272_storage",
        "encoding": "dynamic_array",
        "label": "struct Sunest.SensorRecord[]",
        "numberOfBytes": "32"
      },
      "t_bool": {
        "encoding": "inplace",
        "label": "bool",
        "numberOfBytes": "1"
      },
      "t_bytes32": {
        "encoding": "inplace",
        "label": "bytes32",
        "numberOfBytes": "32"
      },
      "t_contract(ProofOfExistence)242": {
        "encoding": "inplace",
        "label": "contract ProofOfExistence",
        "numberOfBytes": "20"
      },
      "t_mapping(t_address,t_struct(Node)285_storage)": {
        "encoding": "mapping",
        "key": "t_address",
        "label": "mapping(address => struct Sunest.Node)",
        "numberOfBytes": "32",
        "value": "t_struct(Node)285_storage"
      },
      "t_mapping(t_bytes32,t_array(t_bytes32)dyn_storage)": {
        "encoding": "mapping",
        "key": "t_bytes32",
        "label": "mapping(bytes32 => bytes32[])",
        "numberOfBytes": "32",
        "value": "t_array(t_bytes32)dyn_storage"
      },
      "t_mapping(t_bytes32,t_array(t_struct(SensorRecord)272_storage)dyn_storage)": {
        "encoding": "mapping",
        "key": "t_bytes32",
        "label": "mapping(bytes32 => struct Sunest.SensorRecord[])",
        "numberOfBytes": "32",
        "value": "t_array(t_struct(SensorRecord)272_storage)dyn_storage"
      },
      "t_mapping(t_bytes32,t_struct(Microgrid)267_storage)": {
        "encoding": "mapping",
        "key": "t_bytes32",
        "label": "mapping(bytes32 => struct Sunest.Microgrid)",
        "numberOfBytes": "32",
        "value": "t_struct(Microgrid)267_storage"
      },
      "t_string_storage": {
        "encoding": "bytes",
        "label": "string",
        "numberOfBytes": "32"
      },
      "t_struct(Microgrid)267_storage": {
        "encoding": "inplace",
        "label": "struct Sunest.Microgrid",
        "members": [
          {
            "astId": 256,
            "contract": "contracts/Sunest.sol:Sunest",
            "label": "walletMetamask",
            "offset": 0,
            "slot": "0",
            "type": "t_address"
          },
          {
            "astId": 258,
            "contract": "contracts/Sunest.sol:Sunest",
            "label": "energyPricePerOp",
            "offset": 0,
            "slot": "1",
            "type": "t_uint256"
          },
          {
            "astId": 260,
            "contract": "contracts/Sunest.sol:Sunest",
            "label": "country",
            "offset": 0,
            "slot": "2",
            "type": "t_string_storage"
          },
          {
            "astId": 262,
            "contract": "contracts/Sunest.sol:Sunest",
            "label": "city",
            "offset": 0,
            "slot": "3",
            "type": "t_string_storage"
          },
          {
            "astId": 264,
            "contract": "contracts/Sunest.sol:Sunest",
            "label": "isActive",
            "offset": 0,
            "slot": "4",
            "type": "t_bool"
          },
          {
            "astId": 266,
            "contract": "contracts/Sunest.sol:Sunest",
            "label": "owner",
            "offset": 1,
            "slot": "4",
            "type": "t_address"
          }
        ],
        "numberOfBytes": "160"
      },
      "t_struct(Node)285_storage": {
        "encoding": "inplace",
        "label": "struct Sunest.Node",
        "members": [
          {
            "astId": 274,
            "contract": "contracts/Sunest.sol:Sunest",
            "label": "operator",
            "offset": 0,
            "slot": "0",
            "type": "t_address"
          },
          {
            "astId": 276,
            "contract": "contracts/Sunest.sol:Sunest",
            "label": "currentMicrogridHash",
            "offset": 0,
            "slot": "1",
            "type": "t_bytes32"
          },
          {
            "astId": 278,
            "contract": "contracts/Sunest.sol:Sunest",
            "label": "isActive",
            "offset": 0,
            "slot": "2",
            "type": "t_bool"
          },
          {
            "astId": 280,
            "contract": "contracts/Sunest.sol:Sunest",
            "label": "country",
            "offset": 0,
            "slot": "3",
            "type": "t_string_storage"
          },
          {
            "astId": 282,
            "contract": "contracts/Sunest.sol:Sunest",
            "label": "city",
            "offset": 0,
            "slot": "4",
            "type": "t_string_storage"
          },
          {
            "astId": 284,
            "contract": "contracts/Sunest.sol:Sunest",
            "label": "storedGB",
            "offset": 0,
            "slot": "5",
            "type": "t_uint256"
          }
        ],
        "numberOfBytes": "192"
      },
      "t_struct(SensorRecord)272_storage": {
        "encoding": "inplace",
        "label": "struct Sunest.SensorRecord",
        "members": [
          {
            "astId": 269,
            "contract": "contracts/Sunest.sol:Sunest",
            "label": "kWh",
            "offset": 0,
            "slot": "0",
            "type": "t_uint256"
          },
          {
            "astId": 271,
            "contract": "contracts/Sunest.sol:Sunest",
            "label": "timestamp",
            "offset": 0,
            "slot": "1",
            "type": "t_uint256"
          }
        ],
        "numberOfBytes": "64"
      },
      "t_uint256": {
        "encoding": "inplace",
        "label": "uint256",
        "numberOfBytes": "32"
      }
    }
  }
}