{
  "_format": "hh-sol-artifact-1",
  "contractName": "Marketplace",
  "sourceName": "contracts/Marketplace.sol",
  "abi": [
    {
      "inputs": [
        {
          "internalType": "address",
          "name": "_vitrineCoreAddress",
          "type": "address"
        }
      ],
      "stateMutability": "nonpayable",
      "type": "constructor"
    },
    {
      "anonymous": false,
      "inputs": [
        {
          "indexed": true,
          "internalType": "uint256",
          "name": "productId",
          "type": "uint256"
        },
        {
          "indexed": true,
          "internalType": "address",
          "name": "buyer",
          "type": "address"
        },
        {
          "indexed": true,
          "internalType": "address",
          "name": "seller",
          "type": "address"
        },
        {
          "indexed": false,
          "internalType": "address",
          "name": "streamer",
          "type": "address"
        },
        {
          "indexed": false,
          "internalType": "uint256",
          "name": "price",
          "type": "uint256"
        }
      ],
      "name": "ProductPurchased",
      "type": "event"
    },
    {
      "anonymous": false,
      "inputs": [
        {
          "indexed": true,
          "internalType": "uint256",
          "name": "productId",
          "type": "uint256"
        },
        {
          "indexed": true,
          "internalType": "address",
          "name": "owner",
          "type": "address"
        },
        {
          "indexed": false,
          "internalType": "string",
          "name": "metadataFid",
          "type": "string"
        }
      ],
      "name": "ProductRegistered",
      "type": "event"
    },
    {
      "inputs": [],
      "name": "REGISTER_PRODUCT_REP_THRESHOLD",
      "outputs": [
        {
          "internalType": "uint256",
          "name": "",
          "type": "uint256"
        }
      ],
      "stateMutability": "view",
      "type": "function"
    },
    {
      "inputs": [
        {
          "internalType": "uint256",
          "name": "_productId",
          "type": "uint256"
        }
      ],
      "name": "getProduct",
      "outputs": [
        {
          "internalType": "uint256",
          "name": "id",
          "type": "uint256"
        },
        {
          "internalType": "address",
          "name": "owner",
          "type": "address"
        },
        {
          "internalType": "uint256",
          "name": "price",
          "type": "uint256"
        },
        {
          "internalType": "uint256",
          "name": "commission",
          "type": "uint256"
        },
        {
          "internalType": "string",
          "name": "metadataFid",
          "type": "string"
        }
      ],
      "stateMutability": "view",
      "type": "function"
    },
    {
      "inputs": [],
      "name": "nextProductId",
      "outputs": [
        {
          "internalType": "uint256",
          "name": "",
          "type": "uint256"
        }
      ],
      "stateMutability": "view",
      "type": "function"
    },
    {
      "inputs": [
        {
          "internalType": "uint256",
          "name": "",
          "type": "uint256"
        }
      ],
      "name": "products",
      "outputs": [
        {
          "internalType": "uint256",
          "name": "id",
          "type": "uint256"
        },
        {
          "internalType": "address",
          "name": "owner",
          "type": "address"
        },
        {
          "internalType": "uint256",
          "name": "price",
          "type": "uint256"
        },
        {
          "internalType": "uint256",
          "name": "commission",
          "type": "uint256"
        },
        {
          "internalType": "string",
          "name": "metadataFid",
          "type": "string"
        }
      ],
      "stateMutability": "view",
      "type": "function"
    },
    {
      "inputs": [
        {
          "internalType": "uint256",
          "name": "_productId",
          "type": "uint256"
        }
      ],
      "name": "purchaseProduct",
      "outputs": [],
      "stateMutability": "payable",
      "type": "function"
    },
    {
      "inputs": [
        {
          "internalType": "uint256",
          "name": "_price",
          "type": "uint256"
        },
        {
          "internalType": "uint256",
          "name": "_commission",
          "type": "uint256"
        },
        {
          "internalType": "string",
          "name": "_metadataFid",
          "type": "string"
        }
      ],
      "name": "registerProduct",
      "outputs": [],
      "stateMutability": "nonpayable",
      "type": "function"
    },
    {
      "inputs": [],
      "name": "vitrineCore",
      "outputs": [
        {
          "internalType": "contract VitrineCore",
          "name": "",
          "type": "address"
        }
      ],
      "stateMutability": "view",
      "type": "function"
    }
  ],
  "bytecode": "0x60806040523480156200001157600080fd5b5060405162001590380380620015908339818101604052810190620000379190620000e8565b806000806101000a81548173ffffffffffffffffffffffffffffffffffffffff021916908373ffffffffffffffffffffffffffffffffffffffff160217905550506200011a565b600080fd5b600073ffffffffffffffffffffffffffffffffffffffff82169050919050565b6000620000b08262000083565b9050919050565b620000c281620000a3565b8114620000ce57600080fd5b50565b600081519050620000e281620000b7565b92915050565b6000602082840312156200010157620001006200007e565b5b60006200011184828501620000d1565b91505092915050565b611466806200012a6000396000f3fe6080604052600436106100705760003560e01c806368a9faf61161004e57806368a9faf6146100e55780637acc0b2014610110578063b9db15b414610151578063e2db4e081461019257610070565b806324afbea71461007557806338e76a031461009e5780634de91a63146100ba575b600080fd5b34801561008157600080fd5b5061009c60048036038101906100979190610b46565b6101bd565b005b6100b860048036038101906100b39190610bb5565b6103c9565b005b3480156100c657600080fd5b506100cf6106d9565b6040516100dc9190610bf1565b60405180910390f35b3480156100f157600080fd5b506100fa6106df565b6040516101079190610bf1565b60405180910390f35b34801561011c57600080fd5b5061013760048036038101906101329190610bb5565b6106e4565b604051610148959493929190610ccc565b60405180910390f35b34801561015d57600080fd5b5061017860048036038101906101739190610bb5565b6107c2565b604051610189959493929190610ccc565b60405180910390f35b34801561019e57600080fd5b506101a7610992565b6040516101b49190610d85565b60405180910390f35b60008311610200576040517f08c379a00000000000000000000000000000000000000000000000000000000081526004016101f790610e12565b60405180910390fd5b60648210610243576040517f08c379a000000000000000000000000000000000000000000000000000000000815260040161023a90610e7e565b60405180910390fd5b6000815111610287576040517f08c379a000000000000000000000000000000000000000000000000000000000815260040161027e90610f10565b60405180910390fd5b600060015490506040518060a001604052808281526020013373ffffffffffffffffffffffffffffffffffffffff16815260200185815260200184815260200183815250600260008381526020019081526020016000206000820151816000015560208201518160010160006101000a81548173ffffffffffffffffffffffffffffffffffffffff021916908373ffffffffffffffffffffffffffffffffffffffff160217905550604082015181600201556060820151816003015560808201518160040190816103589190611132565b509050506001600081548092919061036f90611233565b91905055503373ffffffffffffffffffffffffffffffffffffffff16817f0760719a2bff712fd963b31a18f1f3c21651edaf3ce212d45e1d0e5145fdc759846040516103bb919061127b565b60405180910390a350505050565b6000600260008381526020019081526020016000206040518060a0016040529081600082015481526020016001820160009054906101000a900473ffffffffffffffffffffffffffffffffffffffff1673ffffffffffffffffffffffffffffffffffffffff1673ffffffffffffffffffffffffffffffffffffffff168152602001600282015481526020016003820154815260200160048201805461046d90610f5f565b80601f016020809104026020016040519081016040528092919081815260200182805461049990610f5f565b80156104e65780601f106104bb576101008083540402835291602001916104e6565b820191906000526020600020905b8154815290600101906020018083116104c957829003601f168201915b5050505050815250509050600073ffffffffffffffffffffffffffffffffffffffff16816020015173ffffffffffffffffffffffffffffffffffffffff1603610564576040517f08c379a000000000000000000000000000000000000000000000000000000000815260040161055b906112e9565b60405180910390fd5b80604001513410156105ab576040517f08c379a00000000000000000000000000000000000000000000000000000000081526004016105a290611355565b60405180910390fd5b3373ffffffffffffffffffffffffffffffffffffffff16816020015173ffffffffffffffffffffffffffffffffffffffff160361061d576040517f08c379a0000000000000000000000000000000000000000000000000000000008152600401610614906113e7565b60405180910390fd5b806020015173ffffffffffffffffffffffffffffffffffffffff166108fc349081150290604051600060405180830381858888f19350505050158015610667573d6000803e3d6000fd5b50806020015173ffffffffffffffffffffffffffffffffffffffff163373ffffffffffffffffffffffffffffffffffffffff16837f3483c83360ec398691b6dfb2620094a0a765dff5e38b65a1d5e74e092c64e85c6000346040516106cd929190611407565b60405180910390a45050565b60015481565b600a81565b60026020528060005260406000206000915090508060000154908060010160009054906101000a900473ffffffffffffffffffffffffffffffffffffffff169080600201549080600301549080600401805461073f90610f5f565b80601f016020809104026020016040519081016040528092919081815260200182805461076b90610f5f565b80156107b85780601f1061078d576101008083540402835291602001916107b8565b820191906000526020600020905b81548152906001019060200180831161079b57829003601f168201915b5050505050905085565b60008060008060606000600260008881526020019081526020016000206040518060a0016040529081600082015481526020016001820160009054906101000a900473ffffffffffffffffffffffffffffffffffffffff1673ffffffffffffffffffffffffffffffffffffffff1673ffffffffffffffffffffffffffffffffffffffff168152602001600282015481526020016003820154815260200160048201805461086e90610f5f565b80601f016020809104026020016040519081016040528092919081815260200182805461089a90610f5f565b80156108e75780601f106108bc576101008083540402835291602001916108e7565b820191906000526020600020905b8154815290600101906020018083116108ca57829003601f168201915b5050505050815250509050600073ffffffffffffffffffffffffffffffffffffffff16816020015173ffffffffffffffffffffffffffffffffffffffff1603610965576040517f08c379a000000000000000000000000000000000000000000000000000000000815260040161095c906112e9565b60405180910390fd5b80600001518160200151826040015183606001518460800151955095509550955095505091939590929450565b60008054906101000a900473ffffffffffffffffffffffffffffffffffffffff1681565b6000604051905090565b600080fd5b600080fd5b6000819050919050565b6109dd816109ca565b81146109e857600080fd5b50565b6000813590506109fa816109d4565b92915050565b600080fd5b600080fd5b6000601f19601f8301169050919050565b7f4e487b7100000000000000000000000000000000000000000000000000000000600052604160045260246000fd5b610a5382610a0a565b810181811067ffffffffffffffff82111715610a7257610a71610a1b565b5b80604052505050565b6000610a856109b6565b9050610a918282610a4a565b919050565b600067ffffffffffffffff821115610ab157610ab0610a1b565b5b610aba82610a0a565b9050602081019050919050565b82818337600083830152505050565b6000610ae9610ae484610a96565b610a7b565b905082815260208101848484011115610b0557610b04610a05565b5b610b10848285610ac7565b509392505050565b600082601f830112610b2d57610b2c610a00565b5b8135610b3d848260208601610ad6565b91505092915050565b600080600060608486031215610b5f57610b5e6109c0565b5b6000610b6d868287016109eb565b9350506020610b7e868287016109eb565b925050604084013567ffffffffffffffff811115610b9f57610b9e6109c5565b5b610bab86828701610b18565b9150509250925092565b600060208284031215610bcb57610bca6109c0565b5b6000610bd9848285016109eb565b91505092915050565b610beb816109ca565b82525050565b6000602082019050610c066000830184610be2565b92915050565b600073ffffffffffffffffffffffffffffffffffffffff82169050919050565b6000610c3782610c0c565b9050919050565b610c4781610c2c565b82525050565b600081519050919050565b600082825260208201905092915050565b60005b83811015610c87578082015181840152602081019050610c6c565b60008484015250505050565b6000610c9e82610c4d565b610ca88185610c58565b9350610cb8818560208601610c69565b610cc181610a0a565b840191505092915050565b600060a082019050610ce16000830188610be2565b610cee6020830187610c3e565b610cfb6040830186610be2565b610d086060830185610be2565b8181036080830152610d1a8184610c93565b90509695505050505050565b6000819050919050565b6000610d4b610d46610d4184610c0c565b610d26565b610c0c565b9050919050565b6000610d5d82610d30565b9050919050565b6000610d6f82610d52565b9050919050565b610d7f81610d64565b82525050565b6000602082019050610d9a6000830184610d76565b92915050565b7f4d61726b6574706c6163653a20507265636f206465766520736572206d61696f60008201527f7220717565207a65726f00000000000000000000000000000000000000000000602082015250565b6000610dfc602a83610c58565b9150610e0782610da0565b604082019050919050565b60006020820190508181036000830152610e2b81610def565b9050919050565b7f4d61726b6574706c6163653a20436f6d697373616f20696e76616c6964610000600082015250565b6000610e68601e83610c58565b9150610e7382610e32565b602082019050919050565b60006020820190508181036000830152610e9781610e5b565b9050919050565b7f4d61726b6574706c6163653a204d6574616461746120464944206f627269676160008201527f746f72696f000000000000000000000000000000000000000000000000000000602082015250565b6000610efa602583610c58565b9150610f0582610e9e565b604082019050919050565b60006020820190508181036000830152610f2981610eed565b9050919050565b7f4e487b7100000000000000000000000000000000000000000000000000000000600052602260045260246000fd5b60006002820490506001821680610f7757607f821691505b602082108103610f8a57610f89610f30565b5b50919050565b60008190508160005260206000209050919050565b60006020601f8301049050919050565b600082821b905092915050565b600060088302610ff27fffffffffffffffffffffffffffffffffffffffffffffffffffffffffffffffff82610fb5565b610ffc8683610fb5565b95508019841693508086168417925050509392505050565b600061102f61102a611025846109ca565b610d26565b6109ca565b9050919050565b6000819050919050565b61104983611014565b61105d61105582611036565b848454610fc2565b825550505050565b600090565b611072611065565b61107d818484611040565b505050565b5b818110156110a15761109660008261106a565b600181019050611083565b5050565b601f8211156110e6576110b781610f90565b6110c084610fa5565b810160208510156110cf578190505b6110e36110db85610fa5565b830182611082565b50505b505050565b600082821c905092915050565b6000611109600019846008026110eb565b1980831691505092915050565b600061112283836110f8565b9150826002028217905092915050565b61113b82610c4d565b67ffffffffffffffff81111561115457611153610a1b565b5b61115e8254610f5f565b6111698282856110a5565b600060209050601f83116001811461119c576000841561118a578287015190505b6111948582611116565b8655506111fc565b601f1984166111aa86610f90565b60005b828110156111d2578489015182556001820191506020850194506020810190506111ad565b868310156111ef57848901516111eb601f8916826110f8565b8355505b6001600288020188555050505b505050505050565b7f4e487b7100000000000000000000000000000000000000000000000000000000600052601160045260246000fd5b600061123e826109ca565b91507fffffffffffffffffffffffffffffffffffffffffffffffffffffffffffffffff82036112705761126f611204565b5b600182019050919050565b600060208201905081810360008301526112958184610c93565b905092915050565b7f4d61726b6574706c6163653a2050726f6475746f206e616f2065786973746500600082015250565b60006112d3601f83610c58565b91506112de8261129d565b602082019050919050565b60006020820190508181036000830152611302816112c6565b9050919050565b7f4d61726b6574706c6163653a2056616c6f7220696e737566696369656e746500600082015250565b600061133f601f83610c58565b915061134a82611309565b602082019050919050565b6000602082019050818103600083015261136e81611332565b9050919050565b7f4d61726b6574706c6163653a204e616f20706f646520636f6d7072617220736560008201527f752070726f7072696f2070726f6475746f000000000000000000000000000000602082015250565b60006113d1603183610c58565b91506113dc82611375565b604082019050919050565b60006020820190508181036000830152611400816113c4565b9050919050565b600060408201905061141c6000830185610c3e565b6114296020830184610be2565b939250505056fea264697066735822122004331be08ca3c99abb42b6caa33fd3628c125d4c6ab3a2d704221164812f2aa464736f6c63430008140033",
  "linkReferences": {},
  "deployedLinkReferences": {}
}