{
  "_format": "hh-sol-artifact-1",
  "contractName": "Marketplace",
  "sourceName": "contracts/Marketplace.sol",
  "abi": [
    {
      "inputs": [
        {
          "internalType": "address",
          "name": "_vitrineCoreAddress",
          "type": "address"
        }
      ],
      "stateMutability": "nonpayable",
      "type": "constructor"
    },
    {
      "anonymous": false,
      "inputs": [
        {
          "indexed": true,
          "internalType": "uint256",
          "name": "productId",
          "type": "uint256"
        },
        {
          "indexed": true,
          "internalType": "address",
          "name": "buyer",
          "type": "address"
        },
        {
          "indexed": true,
          "internalType": "address",
          "name": "seller",
          "type": "address"
        },
        {
          "indexed": false,
          "internalType": "address",
          "name": "streamer",
          "type": "address"
        },
        {
          "indexed": false,
          "internalType": "uint256",
          "name": "price",
          "type": "uint256"
        }
      ],
      "name": "ProductPurchased",
      "type": "event"
    },
    {
      "anonymous": false,
      "inputs": [
        {
          "indexed": true,
          "internalType": "uint256",
          "name": "productId",
          "type": "uint256"
        },
        {
          "indexed": true,
          "internalType": "address",
          "name": "owner",
          "type": "address"
        },
        {
          "indexed": false,
          "internalType": "uint256",
          "name": "price",
          "type": "uint256"
        },
        {
          "indexed": false,
          "internalType": "uint256",
          "name": "commission",
          "type": "uint256"
        }
      ],
      "name": "ProductRegistered",
      "type": "event"
    },
    {
      "inputs": [],
      "name": "REGISTER_PRODUCT_REP_THRESHOLD",
      "outputs": [
        {
          "internalType": "uint256",
          "name": "",
          "type": "uint256"
        }
      ],
      "stateMutability": "view",
      "type": "function"
    },
    {
      "inputs": [],
      "name": "nextProductId",
      "outputs": [
        {
          "internalType": "uint256",
          "name": "",
          "type": "uint256"
        }
      ],
      "stateMutability": "view",
      "type": "function"
    },
    {
      "inputs": [
        {
          "internalType": "uint256",
          "name": "",
          "type": "uint256"
        }
      ],
      "name": "products",
      "outputs": [
        {
          "internalType": "uint256",
          "name": "id",
          "type": "uint256"
        },
        {
          "internalType": "address",
          "name": "owner",
          "type": "address"
        },
        {
          "internalType": "uint256",
          "name": "price",
          "type": "uint256"
        },
        {
          "internalType": "uint256",
          "name": "commission",
          "type": "uint256"
        }
      ],
      "stateMutability": "view",
      "type": "function"
    },
    {
      "inputs": [
        {
          "internalType": "uint256",
          "name": "_price",
          "type": "uint256"
        },
        {
          "internalType": "uint256",
          "name": "_commission",
          "type": "uint256"
        }
      ],
      "name": "registerProduct",
      "outputs": [],
      "stateMutability": "nonpayable",
      "type": "function"
    },
    {
      "inputs": [],
      "name": "vitrineCore",
      "outputs": [
        {
          "internalType": "contract VitrineCore",
          "name": "",
          "type": "address"
        }
      ],
      "stateMutability": "view",
      "type": "function"
    }
  ],
  "bytecode": "0x608060405234801561001057600080fd5b506040516108f63803806108f6833981810160405281019061003291906100db565b806000806101000a81548173ffffffffffffffffffffffffffffffffffffffff021916908373ffffffffffffffffffffffffffffffffffffffff16021790555050610108565b600080fd5b600073ffffffffffffffffffffffffffffffffffffffff82169050919050565b60006100a88261007d565b9050919050565b6100b88161009d565b81146100c357600080fd5b50565b6000815190506100d5816100af565b92915050565b6000602082840312156100f1576100f0610078565b5b60006100ff848285016100c6565b91505092915050565b6107df806101176000396000f3fe608060405234801561001057600080fd5b50600436106100575760003560e01c80634de91a631461005c57806368a9faf61461007a57806370473bbb146100985780637acc0b20146100b4578063e2db4e08146100e7575b600080fd5b610064610105565b60405161007191906103e4565b60405180910390f35b61008261010b565b60405161008f91906103e4565b60405180910390f35b6100b260048036038101906100ad9190610430565b610110565b005b6100ce60048036038101906100c99190610470565b610357565b6040516100de94939291906104de565b60405180910390f35b6100ef6103a7565b6040516100fc9190610582565b60405180910390f35b60015481565b600a81565b600a60008054906101000a900473ffffffffffffffffffffffffffffffffffffffff1673ffffffffffffffffffffffffffffffffffffffff1663e503bb05336040518263ffffffff1660e01b815260040161016b919061059d565b602060405180830381865afa158015610188573d6000803e3d6000fd5b505050506040513d601f19601f820116820180604052508101906101ac91906105cd565b10156101ed576040517f08c379a00000000000000000000000000000000000000000000000000000000081526004016101e49061067d565b60405180910390fd5b60648110610230576040517f08c379a0000000000000000000000000000000000000000000000000000000008152600401610227906106e9565b60405180910390fd5b6000600154905060405180608001604052808281526020013373ffffffffffffffffffffffffffffffffffffffff16815260200184815260200183815250600260008381526020019081526020016000206000820151816000015560208201518160010160006101000a81548173ffffffffffffffffffffffffffffffffffffffff021916908373ffffffffffffffffffffffffffffffffffffffff1602179055506040820151816002015560608201518160030155905050600160008154809291906102fc90610738565b91905055503373ffffffffffffffffffffffffffffffffffffffff16817f78dacead9f969e2409fb04f3822c6990fc411405a4963346e66634d9cb7a7673858560405161034a929190610780565b60405180910390a3505050565b60026020528060005260406000206000915090508060000154908060010160009054906101000a900473ffffffffffffffffffffffffffffffffffffffff16908060020154908060030154905084565b60008054906101000a900473ffffffffffffffffffffffffffffffffffffffff1681565b6000819050919050565b6103de816103cb565b82525050565b60006020820190506103f960008301846103d5565b92915050565b600080fd5b61040d816103cb565b811461041857600080fd5b50565b60008135905061042a81610404565b92915050565b60008060408385031215610447576104466103ff565b5b60006104558582860161041b565b92505060206104668582860161041b565b9150509250929050565b600060208284031215610486576104856103ff565b5b60006104948482850161041b565b91505092915050565b600073ffffffffffffffffffffffffffffffffffffffff82169050919050565b60006104c88261049d565b9050919050565b6104d8816104bd565b82525050565b60006080820190506104f360008301876103d5565b61050060208301866104cf565b61050d60408301856103d5565b61051a60608301846103d5565b95945050505050565b6000819050919050565b600061054861054361053e8461049d565b610523565b61049d565b9050919050565b600061055a8261052d565b9050919050565b600061056c8261054f565b9050919050565b61057c81610561565b82525050565b60006020820190506105976000830184610573565b92915050565b60006020820190506105b260008301846104cf565b92915050565b6000815190506105c781610404565b92915050565b6000602082840312156105e3576105e26103ff565b5b60006105f1848285016105b8565b91505092915050565b600082825260208201905092915050565b7f4d61726b6574706c6163653a2052657075746163616f20696e7375666963696560008201527f6e746520706172612072656769737461722070726f6475746f73000000000000602082015250565b6000610667603a836105fa565b91506106728261060b565b604082019050919050565b600060208201905081810360008301526106968161065a565b9050919050565b7f4d61726b6574706c6163653a20436f6d697373616f20696e76616c6964610000600082015250565b60006106d3601e836105fa565b91506106de8261069d565b602082019050919050565b60006020820190508181036000830152610702816106c6565b9050919050565b7f4e487b7100000000000000000000000000000000000000000000000000000000600052601160045260246000fd5b6000610743826103cb565b91507fffffffffffffffffffffffffffffffffffffffffffffffffffffffffffffffff820361077557610774610709565b5b600182019050919050565b600060408201905061079560008301856103d5565b6107a260208301846103d5565b939250505056fea2646970667358221220af79cdd96087b575789d9bf684c3b5ffa4861f26363f7c401a53fecd13acc7fd64736f6c63430008140033",
  "linkReferences": {},
  "deployedLinkReferences": {}
}