{
  "_format": "hh-sol-artifact-1",
  "contractName": "VitrineCore",
  "sourceName": "contracts/VitrineCore.sol",
  "abi": [
    {
      "inputs": [],
      "stateMutability": "nonpayable",
      "type": "constructor"
    },
    {
      "inputs": [
        {
          "internalType": "address",
          "name": "owner",
          "type": "address"
        }
      ],
      "name": "OwnableInvalidOwner",
      "type": "error"
    },
    {
      "inputs": [
        {
          "internalType": "address",
          "name": "account",
          "type": "address"
        }
      ],
      "name": "OwnableUnauthorizedAccount",
      "type": "error"
    },
    {
      "anonymous": false,
      "inputs": [
        {
          "indexed": true,
          "internalType": "address",
          "name": "previousOwner",
          "type": "address"
        },
        {
          "indexed": true,
          "internalType": "address",
          "name": "newOwner",
          "type": "address"
        }
      ],
      "name": "OwnershipTransferred",
      "type": "event"
    },
    {
      "anonymous": false,
      "inputs": [
        {
          "indexed": true,
          "internalType": "address",
          "name": "user",
          "type": "address"
        },
        {
          "indexed": false,
          "internalType": "bytes32",
          "name": "newHash",
          "type": "bytes32"
        }
      ],
      "name": "PersonaHashUpdated",
      "type": "event"
    },
    {
      "anonymous": false,
      "inputs": [
        {
          "indexed": true,
          "internalType": "address",
          "name": "user",
          "type": "address"
        },
        {
          "indexed": false,
          "internalType": "uint256",
          "name": "newReputation",
          "type": "uint256"
        }
      ],
      "name": "ReputationUpdated",
      "type": "event"
    },
    {
      "inputs": [],
      "name": "owner",
      "outputs": [
        {
          "internalType": "address",
          "name": "",
          "type": "address"
        }
      ],
      "stateMutability": "view",
      "type": "function"
    },
    {
      "inputs": [
        {
          "internalType": "address",
          "name": "",
          "type": "address"
        }
      ],
      "name": "personaHashes",
      "outputs": [
        {
          "internalType": "bytes32",
          "name": "",
          "type": "bytes32"
        }
      ],
      "stateMutability": "view",
      "type": "function"
    },
    {
      "inputs": [],
      "name": "renounceOwnership",
      "outputs": [],
      "stateMutability": "nonpayable",
      "type": "function"
    },
    {
      "inputs": [
        {
          "internalType": "address",
          "name": "newOwner",
          "type": "address"
        }
      ],
      "name": "transferOwnership",
      "outputs": [],
      "stateMutability": "nonpayable",
      "type": "function"
    },
    {
      "inputs": [
        {
          "internalType": "address",
          "name": "_user",
          "type": "address"
        },
        {
          "internalType": "bytes32",
          "name": "_newHash",
          "type": "bytes32"
        }
      ],
      "name": "updatePersonaHash",
      "outputs": [],
      "stateMutability": "nonpayable",
      "type": "function"
    },
    {
      "inputs": [
        {
          "internalType": "address",
          "name": "_user",
          "type": "address"
        },
        {
          "internalType": "uint256",
          "name": "_pointsToAdd",
          "type": "uint256"
        }
      ],
      "name": "updateUserReputation",
      "outputs": [],
      "stateMutability": "nonpayable",
      "type": "function"
    },
    {
      "inputs": [
        {
          "internalType": "address",
          "name": "",
          "type": "address"
        }
      ],
      "name": "userReputation",
      "outputs": [
        {
          "internalType": "uint256",
          "name": "",
          "type": "uint256"
        }
      ],
      "stateMutability": "view",
      "type": "function"
    }
  ],
  "bytecode": "0x608060405234801561001057600080fd5b5033600073ffffffffffffffffffffffffffffffffffffffff168173ffffffffffffffffffffffffffffffffffffffff16036100845760006040517f1e4fbdf700000000000000000000000000000000000000000000000000000000815260040161007b919061019e565b60405180910390fd5b6100938161009960201b60201c565b506101b9565b60008060009054906101000a900473ffffffffffffffffffffffffffffffffffffffff169050816000806101000a81548173ffffffffffffffffffffffffffffffffffffffff021916908373ffffffffffffffffffffffffffffffffffffffff1602179055508173ffffffffffffffffffffffffffffffffffffffff168173ffffffffffffffffffffffffffffffffffffffff167f8be0079c531659141344cd1fd0a4f28419497f9722a3daafe3b4186f6b6457e060405160405180910390a35050565b600073ffffffffffffffffffffffffffffffffffffffff82169050919050565b60006101888261015d565b9050919050565b6101988161017d565b82525050565b60006020820190506101b3600083018461018f565b92915050565b6107c4806101c86000396000f3fe608060405234801561001057600080fd5b506004361061007d5760003560e01c8063c43bfa211161005b578063c43bfa21146100c6578063e503bb05146100f6578063f2fde38b14610126578063f64a7829146101425761007d565b806356eabb9c14610082578063715018a61461009e5780638da5cb5b146100a8575b600080fd5b61009c600480360381019061009791906105ca565b61015e565b005b6100a661024d565b005b6100b0610261565b6040516100bd9190610619565b60405180910390f35b6100e060048036038101906100db9190610634565b61028a565b6040516100ed919061067a565b60405180910390f35b610110600480360381019061010b9190610634565b6102a2565b60405161011d91906106a4565b60405180910390f35b610140600480360381019061013b9190610634565b6102ba565b005b61015c600480360381019061015791906106eb565b610340565b005b6101666103de565b80600260008473ffffffffffffffffffffffffffffffffffffffff1673ffffffffffffffffffffffffffffffffffffffff16815260200190815260200160002060008282546101b5919061075a565b925050819055508173ffffffffffffffffffffffffffffffffffffffff167ffc577563f1b9a0461e24abef1e1fcc0d33d3d881f20b5df6dda59de4aae2c821600260008573ffffffffffffffffffffffffffffffffffffffff1673ffffffffffffffffffffffffffffffffffffffff1681526020019081526020016000205460405161024191906106a4565b60405180910390a25050565b6102556103de565b61025f6000610465565b565b60008060009054906101000a900473ffffffffffffffffffffffffffffffffffffffff16905090565b60016020528060005260406000206000915090505481565b60026020528060005260406000206000915090505481565b6102c26103de565b600073ffffffffffffffffffffffffffffffffffffffff168173ffffffffffffffffffffffffffffffffffffffff16036103345760006040517f1e4fbdf700000000000000000000000000000000000000000000000000000000815260040161032b9190610619565b60405180910390fd5b61033d81610465565b50565b6103486103de565b80600160008473ffffffffffffffffffffffffffffffffffffffff1673ffffffffffffffffffffffffffffffffffffffff168152602001908152602001600020819055508173ffffffffffffffffffffffffffffffffffffffff167f45286a5e3490af9712f5d6f0e268c1023c2bfb086ff20e0af06742af1b12906b826040516103d2919061067a565b60405180910390a25050565b6103e6610529565b73ffffffffffffffffffffffffffffffffffffffff16610404610261565b73ffffffffffffffffffffffffffffffffffffffff161461046357610427610529565b6040517f118cdaa700000000000000000000000000000000000000000000000000000000815260040161045a9190610619565b60405180910390fd5b565b60008060009054906101000a900473ffffffffffffffffffffffffffffffffffffffff169050816000806101000a81548173ffffffffffffffffffffffffffffffffffffffff021916908373ffffffffffffffffffffffffffffffffffffffff1602179055508173ffffffffffffffffffffffffffffffffffffffff168173ffffffffffffffffffffffffffffffffffffffff167f8be0079c531659141344cd1fd0a4f28419497f9722a3daafe3b4186f6b6457e060405160405180910390a35050565b600033905090565b600080fd5b600073ffffffffffffffffffffffffffffffffffffffff82169050919050565b600061056182610536565b9050919050565b61057181610556565b811461057c57600080fd5b50565b60008135905061058e81610568565b92915050565b6000819050919050565b6105a781610594565b81146105b257600080fd5b50565b6000813590506105c48161059e565b92915050565b600080604083850312156105e1576105e0610531565b5b60006105ef8582860161057f565b9250506020610600858286016105b5565b9150509250929050565b61061381610556565b82525050565b600060208201905061062e600083018461060a565b92915050565b60006020828403121561064a57610649610531565b5b60006106588482850161057f565b91505092915050565b6000819050919050565b61067481610661565b82525050565b600060208201905061068f600083018461066b565b92915050565b61069e81610594565b82525050565b60006020820190506106b96000830184610695565b92915050565b6106c881610661565b81146106d357600080fd5b50565b6000813590506106e5816106bf565b92915050565b6000806040838503121561070257610701610531565b5b60006107108582860161057f565b9250506020610721858286016106d6565b9150509250929050565b7f4e487b7100000000000000000000000000000000000000000000000000000000600052601160045260246000fd5b600061076582610594565b915061077083610594565b92508282019050808211156107885761078761072b565b5b9291505056fea26469706673582212208b91c182727ab4aa7ca7be9061161f654835a9a61273b836aef3db24b2a1a2c164736f6c63430008140033",
  "linkReferences": {},
  "deployedLinkReferences": {}
}