{
  "_format": "hh-sol-artifact-1",
  "contractName": "VitrineCore",
  "sourceName": "contracts/VitrineCore.sol",
  "abi": [
    {
      "inputs": [
        {
          "internalType": "address",
          "name": "_tokenAddress",
          "type": "address"
        },
        {
          "internalType": "uint256",
          "name": "_minStake",
          "type": "uint256"
        }
      ],
      "stateMutability": "nonpayable",
      "type": "constructor"
    },
    {
      "inputs": [
        {
          "internalType": "address",
          "name": "owner",
          "type": "address"
        }
      ],
      "name": "OwnableInvalidOwner",
      "type": "error"
    },
    {
      "inputs": [
        {
          "internalType": "address",
          "name": "account",
          "type": "address"
        }
      ],
      "name": "OwnableUnauthorizedAccount",
      "type": "error"
    },
    {
      "anonymous": false,
      "inputs": [
        {
          "indexed": true,
          "internalType": "address",
          "name": "company",
          "type": "address"
        },
        {
          "indexed": false,
          "internalType": "uint256",
          "name": "amount",
          "type": "uint256"
        }
      ],
      "name": "CompanyStaked",
      "type": "event"
    },
    {
      "anonymous": false,
      "inputs": [
        {
          "indexed": true,
          "internalType": "address",
          "name": "company",
          "type": "address"
        },
        {
          "indexed": false,
          "internalType": "uint256",
          "name": "amount",
          "type": "uint256"
        }
      ],
      "name": "CompanyUnstaked",
      "type": "event"
    },
    {
      "anonymous": false,
      "inputs": [
        {
          "indexed": true,
          "internalType": "address",
          "name": "previousOwner",
          "type": "address"
        },
        {
          "indexed": true,
          "internalType": "address",
          "name": "newOwner",
          "type": "address"
        }
      ],
      "name": "OwnershipTransferred",
      "type": "event"
    },
    {
      "anonymous": false,
      "inputs": [
        {
          "indexed": true,
          "internalType": "address",
          "name": "user",
          "type": "address"
        },
        {
          "indexed": false,
          "internalType": "bytes32",
          "name": "newHash",
          "type": "bytes32"
        }
      ],
      "name": "PersonaHashUpdated",
      "type": "event"
    },
    {
      "inputs": [
        {
          "internalType": "address",
          "name": "",
          "type": "address"
        }
      ],
      "name": "companyStakes",
      "outputs": [
        {
          "internalType": "uint256",
          "name": "",
          "type": "uint256"
        }
      ],
      "stateMutability": "view",
      "type": "function"
    },
    {
      "inputs": [
        {
          "internalType": "address",
          "name": "_company",
          "type": "address"
        }
      ],
      "name": "isCompanyActive",
      "outputs": [
        {
          "internalType": "bool",
          "name": "",
          "type": "bool"
        }
      ],
      "stateMutability": "view",
      "type": "function"
    },
    {
      "inputs": [],
      "name": "minStakeAmount",
      "outputs": [
        {
          "internalType": "uint256",
          "name": "",
          "type": "uint256"
        }
      ],
      "stateMutability": "view",
      "type": "function"
    },
    {
      "inputs": [],
      "name": "owner",
      "outputs": [
        {
          "internalType": "address",
          "name": "",
          "type": "address"
        }
      ],
      "stateMutability": "view",
      "type": "function"
    },
    {
      "inputs": [
        {
          "internalType": "address",
          "name": "",
          "type": "address"
        }
      ],
      "name": "personaHashes",
      "outputs": [
        {
          "internalType": "bytes32",
          "name": "",
          "type": "bytes32"
        }
      ],
      "stateMutability": "view",
      "type": "function"
    },
    {
      "inputs": [],
      "name": "renounceOwnership",
      "outputs": [],
      "stateMutability": "nonpayable",
      "type": "function"
    },
    {
      "inputs": [
        {
          "internalType": "uint256",
          "name": "_newMinStake",
          "type": "uint256"
        }
      ],
      "name": "setMinStake",
      "outputs": [],
      "stateMutability": "nonpayable",
      "type": "function"
    },
    {
      "inputs": [
        {
          "internalType": "uint256",
          "name": "_amount",
          "type": "uint256"
        }
      ],
      "name": "stake",
      "outputs": [],
      "stateMutability": "nonpayable",
      "type": "function"
    },
    {
      "inputs": [],
      "name": "stakingToken",
      "outputs": [
        {
          "internalType": "contract IERC20",
          "name": "",
          "type": "address"
        }
      ],
      "stateMutability": "view",
      "type": "function"
    },
    {
      "inputs": [
        {
          "internalType": "address",
          "name": "newOwner",
          "type": "address"
        }
      ],
      "name": "transferOwnership",
      "outputs": [],
      "stateMutability": "nonpayable",
      "type": "function"
    },
    {
      "inputs": [],
      "name": "unstake",
      "outputs": [],
      "stateMutability": "nonpayable",
      "type": "function"
    },
    {
      "inputs": [
        {
          "internalType": "address",
          "name": "_user",
          "type": "address"
        },
        {
          "internalType": "bytes32",
          "name": "_newHash",
          "type": "bytes32"
        }
      ],
      "name": "updatePersonaHash",
      "outputs": [],
      "stateMutability": "nonpayable",
      "type": "function"
    }
  ],
  "bytecode": "0x60806040523480156200001157600080fd5b506040516200119b3803806200119b833981810160405281019062000037919062000278565b33600073ffffffffffffffffffffffffffffffffffffffff168173ffffffffffffffffffffffffffffffffffffffff1603620000ad5760006040517f1e4fbdf7000000000000000000000000000000000000000000000000000000008152600401620000a49190620002d0565b60405180910390fd5b620000be816200010f60201b60201c565b5081600160006101000a81548173ffffffffffffffffffffffffffffffffffffffff021916908373ffffffffffffffffffffffffffffffffffffffff160217905550806002819055505050620002ed565b60008060009054906101000a900473ffffffffffffffffffffffffffffffffffffffff169050816000806101000a81548173ffffffffffffffffffffffffffffffffffffffff021916908373ffffffffffffffffffffffffffffffffffffffff1602179055508173ffffffffffffffffffffffffffffffffffffffff168173ffffffffffffffffffffffffffffffffffffffff167f8be0079c531659141344cd1fd0a4f28419497f9722a3daafe3b4186f6b6457e060405160405180910390a35050565b600080fd5b600073ffffffffffffffffffffffffffffffffffffffff82169050919050565b60006200020582620001d8565b9050919050565b6200021781620001f8565b81146200022357600080fd5b50565b60008151905062000237816200020c565b92915050565b6000819050919050565b62000252816200023d565b81146200025e57600080fd5b50565b600081519050620002728162000247565b92915050565b60008060408385031215620002925762000291620001d3565b5b6000620002a28582860162000226565b9250506020620002b58582860162000261565b9150509250929050565b620002ca81620001f8565b82525050565b6000602082019050620002e76000830184620002bf565b92915050565b610e9e80620002fd6000396000f3fe608060405234801561001057600080fd5b50600436106100b45760003560e01c8063a694fc3a11610071578063a694fc3a14610155578063b60edbbe14610171578063c43bfa21146101a1578063f1887684146101d1578063f2fde38b146101ef578063f64a78291461020b576100b4565b80632def6620146100b9578063715018a6146100c357806372f702f3146100cd5780638c80fd90146100eb5780638da5cb5b146101075780639fda0da414610125575b600080fd5b6100c1610227565b005b6100cb610423565b005b6100d5610437565b6040516100e291906109df565b60405180910390f35b61010560048036038101906101009190610a35565b61045d565b005b61010f61046f565b60405161011c9190610a83565b60405180910390f35b61013f600480360381019061013a9190610aca565b610498565b60405161014c9190610b06565b60405180910390f35b61016f600480360381019061016a9190610a35565b6104b0565b005b61018b60048036038101906101869190610aca565b61067d565b6040516101989190610b3c565b60405180910390f35b6101bb60048036038101906101b69190610aca565b6106cb565b6040516101c89190610b70565b60405180910390f35b6101d96106e3565b6040516101e69190610b06565b60405180910390f35b61020960048036038101906102049190610aca565b6106e9565b005b61022560048036038101906102209190610bb7565b61076f565b005b6000600460003373ffffffffffffffffffffffffffffffffffffffff1673ffffffffffffffffffffffffffffffffffffffff168152602001908152602001600020549050600081116102ae576040517f08c379a00000000000000000000000000000000000000000000000000000000081526004016102a590610c54565b60405180910390fd5b6000600460003373ffffffffffffffffffffffffffffffffffffffff1673ffffffffffffffffffffffffffffffffffffffff16815260200190815260200160002081905550600160009054906101000a900473ffffffffffffffffffffffffffffffffffffffff1673ffffffffffffffffffffffffffffffffffffffff1663a9059cbb33836040518363ffffffff1660e01b8152600401610350929190610c74565b6020604051808303816000875af115801561036f573d6000803e3d6000fd5b505050506040513d601f19601f820116820180604052508101906103939190610cc9565b6103d2576040517f08c379a00000000000000000000000000000000000000000000000000000000081526004016103c990610d42565b60405180910390fd5b3373ffffffffffffffffffffffffffffffffffffffff167f2b9fdb7da7edc1d3bb3cd4c651e6daae8d83a1309a0602a41f14cd289e36423a826040516104189190610b06565b60405180910390a250565b61042b61080d565b6104356000610894565b565b600160009054906101000a900473ffffffffffffffffffffffffffffffffffffffff1681565b61046561080d565b8060028190555050565b60008060009054906101000a900473ffffffffffffffffffffffffffffffffffffffff16905090565b60046020528060005260406000206000915090505481565b6002548110156104f5576040517f08c379a00000000000000000000000000000000000000000000000000000000081526004016104ec90610dae565b60405180910390fd5b80600460003373ffffffffffffffffffffffffffffffffffffffff1673ffffffffffffffffffffffffffffffffffffffff16815260200190815260200160002060008282546105449190610dfd565b92505081905550600160009054906101000a900473ffffffffffffffffffffffffffffffffffffffff1673ffffffffffffffffffffffffffffffffffffffff166323b872dd3330846040518463ffffffff1660e01b81526004016105aa93929190610e31565b6020604051808303816000875af11580156105c9573d6000803e3d6000fd5b505050506040513d601f19601f820116820180604052508101906105ed9190610cc9565b61062c576040517f08c379a000000000000000000000000000000000000000000000000000000000815260040161062390610d42565b60405180910390fd5b3373ffffffffffffffffffffffffffffffffffffffff167fb370f855519848b2505715da763b3fb0da3e2380e98ae31039184cd657bbb8d6826040516106729190610b06565b60405180910390a250565b6000600254600460008473ffffffffffffffffffffffffffffffffffffffff1673ffffffffffffffffffffffffffffffffffffffff1681526020019081526020016000205410159050919050565b60036020528060005260406000206000915090505481565b60025481565b6106f161080d565b600073ffffffffffffffffffffffffffffffffffffffff168173ffffffffffffffffffffffffffffffffffffffff16036107635760006040517f1e4fbdf700000000000000000000000000000000000000000000000000000000815260040161075a9190610a83565b60405180910390fd5b61076c81610894565b50565b61077761080d565b80600360008473ffffffffffffffffffffffffffffffffffffffff1673ffffffffffffffffffffffffffffffffffffffff168152602001908152602001600020819055508173ffffffffffffffffffffffffffffffffffffffff167f45286a5e3490af9712f5d6f0e268c1023c2bfb086ff20e0af06742af1b12906b826040516108019190610b70565b60405180910390a25050565b610815610958565b73ffffffffffffffffffffffffffffffffffffffff1661083361046f565b73ffffffffffffffffffffffffffffffffffffffff161461089257610856610958565b6040517f118cdaa70000000000000000000000000000000000000000000000000000000081526004016108899190610a83565b60405180910390fd5b565b60008060009054906101000a900473ffffffffffffffffffffffffffffffffffffffff169050816000806101000a81548173ffffffffffffffffffffffffffffffffffffffff021916908373ffffffffffffffffffffffffffffffffffffffff1602179055508173ffffffffffffffffffffffffffffffffffffffff168173ffffffffffffffffffffffffffffffffffffffff167f8be0079c531659141344cd1fd0a4f28419497f9722a3daafe3b4186f6b6457e060405160405180910390a35050565b600033905090565b600073ffffffffffffffffffffffffffffffffffffffff82169050919050565b6000819050919050565b60006109a56109a061099b84610960565b610980565b610960565b9050919050565b60006109b78261098a565b9050919050565b60006109c9826109ac565b9050919050565b6109d9816109be565b82525050565b60006020820190506109f460008301846109d0565b92915050565b600080fd5b6000819050919050565b610a12816109ff565b8114610a1d57600080fd5b50565b600081359050610a2f81610a09565b92915050565b600060208284031215610a4b57610a4a6109fa565b5b6000610a5984828501610a20565b91505092915050565b6000610a6d82610960565b9050919050565b610a7d81610a62565b82525050565b6000602082019050610a986000830184610a74565b92915050565b610aa781610a62565b8114610ab257600080fd5b50565b600081359050610ac481610a9e565b92915050565b600060208284031215610ae057610adf6109fa565b5b6000610aee84828501610ab5565b91505092915050565b610b00816109ff565b82525050565b6000602082019050610b1b6000830184610af7565b92915050565b60008115159050919050565b610b3681610b21565b82525050565b6000602082019050610b516000830184610b2d565b92915050565b6000819050919050565b610b6a81610b57565b82525050565b6000602082019050610b856000830184610b61565b92915050565b610b9481610b57565b8114610b9f57600080fd5b50565b600081359050610bb181610b8b565b92915050565b60008060408385031215610bce57610bcd6109fa565b5b6000610bdc85828601610ab5565b9250506020610bed85828601610ba2565b9150509250929050565b600082825260208201905092915050565b7f56697472696e653a204e656e68756d2076616c6f7220656d207374616b650000600082015250565b6000610c3e601e83610bf7565b9150610c4982610c08565b602082019050919050565b60006020820190508181036000830152610c6d81610c31565b9050919050565b6000604082019050610c896000830185610a74565b610c966020830184610af7565b9392505050565b610ca681610b21565b8114610cb157600080fd5b50565b600081519050610cc381610c9d565b92915050565b600060208284031215610cdf57610cde6109fa565b5b6000610ced84828501610cb4565b91505092915050565b7f56697472696e653a205472616e73666572656e6369612066616c686f75000000600082015250565b6000610d2c601d83610bf7565b9150610d3782610cf6565b602082019050919050565b60006020820190508181036000830152610d5b81610d1f565b9050919050565b7f56697472696e653a205374616b652061626169786f20646f206d696e696d6f00600082015250565b6000610d98601f83610bf7565b9150610da382610d62565b602082019050919050565b60006020820190508181036000830152610dc781610d8b565b9050919050565b7f4e487b7100000000000000000000000000000000000000000000000000000000600052601160045260246000fd5b6000610e08826109ff565b9150610e13836109ff565b9250828201905080821115610e2b57610e2a610dce565b5b92915050565b6000606082019050610e466000830186610a74565b610e536020830185610a74565b610e606040830184610af7565b94935050505056fea2646970667358221220301526e381e0544d73a73d34709df350dc398c321be15bfe327ff9f1dbc078dd64736f6c63430008140033",
  "linkReferences": {},
  "deployedLinkReferences": {}
}